:020000040800F2
:10000000780B002001010008452A00082D25000872
:10001000CD2900085509000835320008000000000D
:10002000000000000000000000000000E92C0008B3
:100030005709000800000000E72C0008EB2C00081E
:100040001B0100081B0100081B0100081B01000820
:100050001B0100081B0100081B0100081B01000810
:100060001B0100081B010008610900081B010008B2
:100070001B0100081B0100081B0100081B010008F0
:100080001B0100081B0100081B0100081B010008E0
:100090001B0100081B0100081B0100081B010008D0
:1000A0001B0100086D2D00081B0100081B01000842
:1000B000792D00081B010008852D00081B01000890
:1000C0001B0100081B0100081B0100081B010008A0
:1000D0001B010008E53100081B0100082932000857
:1000E000590900081B0100081B010008DFF80CD0AB
:1000F00000F0F4FB00480047353C0008780B002076
:100100000648804706480047FEE7FEE7FEE7FEE7B1
:10011000FEE7FEE7FEE7FEE7FEE7FEE7692D0008E3
:10012000ED000008202A04DB203A21FA02F0002129
:10013000704721FA02F3D040C2F1200291400843F7
:1001400019467047D2B201E000F8012B491EFBD2DC
:1001500070470022F6E710B513460A4604461946D2
:10016000FFF7F0FF204610BD421C10F8011B0029CC
:10017000FBD1801A7047F0B480EA0102D40F42002C
:10018000B2EB410F02D20246084611464A0042D065
:10019000C30DDDB2C1F3C752AD1A202D35DAC1F35C
:1001A000160141F4000204B15242C5F1200602FAE0
:1001B00006F12A411044B3EBD05F23D0C4B1012D26
:1001C000A0EBC35009DCF0BC4FF0004202EAC3527E
:1001D000DBB200F5000000F0DEBA400000F18070F4
:1001E00000EBC350A0F1807040EAD170490009E0F3
:1001F000490841EAC071A0EBC35000F50000400877
:1002000000EBC350F0BC00F0BDBA6142012202EB2A
:100210004101001BF6E7F0BC704781F00041AAE7FE
:1002200080F00040A7E780EA010210B502F0004329
:10023000400022D04A001FD0010E01EB1261C0F332
:100240005600C2F3560240F4000042F40002A0FB44
:10025000022000047F39140400D0401C50EA1240F0
:1002600001D44000491EC2B20C0604EBD010401C61
:100270004008802A02D003E0002010BD20F00100D9
:10028000002900DA0020184310BD2DE9FE4F8046FA
:1002900081EA0300C00F0C46009021F0004123F0DA
:1002A0000045B8EB0200A94105D2404621469046E0
:1002B0001C460B46024623F00040104347D0270D52
:1002C000C7F30A00C3F30A510290401A0190402874
:1002D0006BDAC3F3130040F4801B0098924620B100
:1002E0000023D2EB030A63EB0B0B01985946C0F1D4
:1002F0004002504600F025FA06460D465046594643
:10030000019A00F02DFA10EB08006141002487EA01
:10031000115284EAE7731A4340D0009A62B3019AFB
:10032000012A4FEA075215DC001B61EB02014FF076
:10033000004202EA0752CDE90042001C41F580115B
:1003400032462B4600F064FA03B0BDE8F08F404619
:100350002146F9E7001B61EB0201001C41F5801307
:1003600000185B412018A2F5001747EB030140EA93
:10037000D570B6196D4111E06D084FEA360645EAB1
:10038000C0754FEA0752001B61EB0201001C41F5EA
:10039000801149084FEA30000019514132462B467E
:1003A00003B0BDE8F04F00F024BA009801224000ED
:1003B0000023D0EB020263EBE073009821464FEA82
:1003C000E074B8EB000061EB0401E9E783F000435F
:1003D0005BE781F0004158E72DE9FE4F81EA030415
:1003E00004F0004421F0004100944FF0000B23F092
:1003F000004350EA01045ED052EA03045BD0C3F329
:100400000A54C1F30A552C44A4F2F3340194A0FB1E
:100410000254C1F3130141F48011C3F3130343F4F5
:10042000801301FB024400FB034E840A970A44EA4E
:10043000815447EA8357A4FB076802958D0A05FBA0
:1004400007854FEA932C04FB0C542705029D4FEAC5
:10045000065847EA1637B5EB08056EEB070C870E12
:10046000920E47EA811742EA8312A7FB0201B6EB1C
:100470000B0164EB00042B0D43EA0C335E1844EBD4
:100480001C50DA465146E7FB0201C5F313044FEA5C
:100490000B3343EA14534FEA0432019C43EA060348
:1004A000A4F10C040294009CCDE900B400F0B0F972
:1004B00003B0BDE8F08F00200146F9E72DE9F04DCB
:1004C00081EA030404F0004B21F0004514464FF08C
:1004D000000A23F0004150EA050220D054EA01024C
:1004E0001DD0C5F30A570246C5F31303C1F3130029
:1004F000C1F30A5640F4801543F48013A7EB0608B5
:10050000101BD64608F2FD3873EB050002D308F144
:10051000010801E092185B41B8F1000F03DA0020F6
:100520000146BDE8F08D00204FF480110646844658
:100530000EE0171B73EB050705D3121B63EB0503D6
:1005400006434CEA010C49084FEA300092185B411F
:1005500050EA0107EDD152EA030012D082EA04000A
:1005600083EA0501084305D0101BAB4106D20122E6
:10057000002306E000224FF0004302E06FF001028A
:1005800053101AEB06004CEB085110EB0A0041EB3C
:100590000B01BDE8F04D00F02CB970B521F000431F
:1005A00003430CD0C1F30A550024D5EB040564EBDA
:1005B0000403D617AD1AB34102DB0020014670BD1B
:1005C000201841EB025170BDC10F80EAE070084471
:1005D000CA079623002100F0DEB80EB540F2334181
:1005E00002910021CDE900110A460B4600F010F9F6
:1005F00003B000BD00F0004220F00040C10DC0F388
:10060000160040F400007F2901DA00207047962987
:1006100003DCC1F19601C84001E096398840002A08
:10062000F4D04042704700F0004230F000400AD061
:10063000C10D01F56071C0F3160042EA0151C20814
:1006400040071143704700200146704730B5041E33
:1006500071F1000404DB4FF00044404264EB0101FF
:10066000141E73F1000405DB1C464FF00043524298
:1006700063EB0403994208BF904230BD01F0004390
:1006800030B421F0004150EA010206D00A0DA2F573
:100690006072C1F31301002A02DC30BC00207047F5
:1006A000440F44EAC104C100E01830BC00EBC25062
:1006B00000F068B830B50B46014600202022012426
:1006C00009E021FA02F59D4205D303FA02F5491B20
:1006D00004FA02F52844151EA2F10102F1DC30BD36
:1006E0002DE9F05F0546002092469B468846064667
:1006F000814640241BE02846414647462246FFF7F4
:1007000011FD53465A46C01A914110D3114618465E
:10071000224600F016F82D1A67EB01084F462246D4
:100720000120002100F00DF817EB00094E41201EBA
:10073000A4F10104DFDC484631462A464346BDE8C1
:10074000F09F202A04DB203A00FA02F100207047D3
:100750009140C2F1200320FA03F3194390407047FF
:10076000202A06DBCB17203A41FA02F043EAE07375
:1007700006E041FA02F3D040C2F120029140084362
:10078000194670470029A8BF7047401C490008BFA0
:1007900020F00100704710B4B0FA80FC00FA0CF0B1
:1007A00050EA010404BF10BC704749B1CCF12004E9
:1007B00021FA04F411FA0CF118BF01212143084376
:1007C000A3EB0C01CB1D4FEA00614FEA102042BFA2
:1007D000002010BC704700EBC35010440029A4BF98
:1007E00010BC7047401C490008BF20F0010010BC3D
:1007F000704710B5141E73F1000408DA401C41F173
:10080000000192185B411A4301D120F0010010BD94
:100810002DE9F04D92469B4611B1B1FA81F202E00A
:10082000B0FA80F220329046FFF78BFF04460F4665
:1008300040EA0A0041EA0B0153465A46084313D0E6
:10084000114653EA010019D0C8F140025046FFF7A3
:1008500069FC05460E46504659464246FFF771FF71
:10086000084305D0012004E020463946BDE8F08D5C
:100870000020054346EAE0762C4337430A98630597
:10088000E40AA0EB08000022FD0A44EA47540A30BB
:1008900002D500200146E9E7010510196941DDE9AB
:1008A000084500196941BDE8F04DA2E7C1F30A52BD
:1008B000C1F3130140F2FF3341F480119A4202DA8E
:1008C00000200146704740F233439A42A2F233427D
:1008D00002DC5242FFF726BCFFF733BF064C074D40
:1008E00006E0E06840F0010394E807009847103400
:1008F000AC42F6D3FFF7FEFB90570008B057000854
:1009000070B5044600688168C943C90716D181687B
:1009100021F00101816000F0E1FA054609E000F0F4
:10092000DDFA401B022804D920688068C043C00754
:1009300006D020688068C043C007F0D0002070BD9A
:10094000A06A40F01000A062E06A40F00100E0629E
:10095000012070BDFEE770474FF4805000F0C2B92F
:10096000102000F0BFB972B6FEE70000F8B5002312
:10097000009390F824201C46012A12D0012280F80E
:1009800024204A681F26072A0DD205686F6B521E65
:1009900002EB82029640B7430E68964037436F637E
:1009A00019E00220F8BD05680D2A0AD22F6BD21F6C
:1009B00002EB82029640B7430E68964037432F639E
:1009C00009E0EF6A0D3A02EB82029640B7430E68E7
:1009D00096403743EF620A68072605680A2A0AD359
:1009E000EF680A3A02EB42029640B7438E6896409F
:1009F0003743EF6008E02F6902EB42029640B743AD
:100A00008E68964037432F610A68102A01D0112A58
:100A100020D1124D0268AA4217D195682D0219D42F
:100A2000956845F4000595600968102912D10C49B4
:100A30000C4A0968B1FBF2F101EB8101490000E0C9
:100A4000491E00910029FBD104E0816A41F0200198
:100A50008162012380F824401846F8BD002401403B
:100A60002000002040420F002DE9F0414FF0000629
:100A7000040035467ED0A06A002728B9E76284F8D2
:100A80002470204600F07EF82046FFF739FFA16A67
:100A900001F01001014304D0A06A40F01000A062F0
:100AA00068E0A16A21F4885141F00201A162626804
:100AB000E169237B0A4346EA43010A43A1684FF4F4
:100AC0008076B14208D0012906D0002194F814C0E4
:100AD000BCF1010F02D00AE03146F7E7F3B1A36A97
:100AE00043F02003A362E36A43F00103E362236857
:100AF000D3F804C02CF4694C4CEA010CC3F804C0D0
:100B000021688B68DFF870C003EA0C0313438B6025
:100B1000A168B1420BD0012909D00CE0DFF85CC01C
:100B2000A3690CEB43330B4343F40061DFE7218AF5
:100B30000D05A5F580152168CB6A23F470032B43BE
:100B4000CB62216889680E4B1940914208D1E76257
:100B5000A16A21F0020141F00101A162BDE8F0812A
:100B6000A06A20F0020040F01000A062E06A40F0AD
:100B70000100E0620120F1E7FDF7E1FF00E0FFFF87
:100B8000FE0E1FFF00B585B000210091019102917A
:100B9000039100680E49884218D10E48816941F4DA
:100BA00080618161816901F480610491816941F012
:100BB000040181618069694600F0040004901020FE
:100BC000009003200190044800F098F805B000BDA3
:100BD00000280140001002400008014010B590F8C4
:100BE00021100022022905D00421816380F82020F1
:100BF000012010BD01680B6823F00E030B60016833
:100C00000B6823F001030B6090F84030012404FAD4
:100C100003F1C36B596080F8214080F82020104612
:100C200010BD000010B590F821100024022903D057
:100C30000421816301243DE001680A6822F00E026C
:100C40000A6001680A6822F001020A601A4A016813
:100C5000914201D1012121E0174A1432914201D180
:100C600010211BE0144A2832914201D1891515E068
:100C7000114A3C32914201D189140FE00E4A5032A0
:100C8000914202D14FF4803108E00B4A6432914224
:100C900002D14FF4801101E04FF08071064A083A0A
:100CA0005160012180F82110002180F82010416B53
:100CB00001B18847204610BD0800024070B50446C7
:100CC00000F00CF90546601C02D00448007804448A
:100CD00000F004F9401BA042FAD370BD14000020BC
:100CE00070470000044910B50A68024202D008604B
:100CF000FFF7F6FF10BD0000140401402DE9F84F86
:100D0000DFF8A491002409F1040A0AF1040B234638
:100D10004FF00F080BF1040EBEE00127A7403A4048
:100D2000BA4272D1DFF884C14D68A5EB0C06654567
:100D30002BD00DDC032D34D005DC35B3012D19D0BB
:100D4000022D2FD11BE0112D16D0122D2AD119E022
:100D5000B6F5881F19D006DCB6F5803F15D0B6F57C
:100D6000801F1FD111E0B6F5001F0ED0B6F5041F8D
:100D700018D10AE0CB6815E0CB681B1D12E0CB68E8
:100D800008330FE0CB680C330CE08B682BB1012BE0
:100D90004FF0080303D0476104E0042302E0076139
:100DA00000E00023FF2A01D8064601E000F1040616
:100DB0004FEA840501D9A5F12005376808FA05FC3A
:100DC00027EA0C0703FA05F547EA050737604D687F
:100DD000ED0060D5364DAE6946F00106AE61AD69F5
:100DE00024F0030605F001050095324D7719BE6821
:100DF000A5072D0F08FA05FC26EA0C06DFF8B8C097
:100E0000604503D14FF0000C17E044E0DFF8ACC0C0
:100E1000604502D14FF0010C0FE0DFF8A4C060453F
:100E200002D14FF0020C08E0DFF898C0604502D113
:100E30004FF0030C01E04FF0040C0CFA05FC4CEAF7
:100E4000060CC7F808C04D68D9F80060ED034D46A0
:100E500001D5164300E096432E604D68DAF8006035
:100E6000AD03554601D5164300E096432E604D680C
:100E7000DBF80060ED025D4601D5164300E09643C5
:100E80002E604D68DEF80060AD02754601D5164350
:100E900000E096432E60641C0A6832FA04F57FF481
:100EA0003CAFBDE8F88F00000004014000001110C5
:100EB000001002400000014000080140000C014009
:100EC00000100140001401408068084000D001205B
:100ED00070470AB1016170470904FBE70148806867
:100EE0007047000014000020024881680278114415
:100EF0008160704714000020074810B5016841F078
:100F000010010160032000F075F80F2000F006F8D2
:100F100000F024F8002010BD0020024070B50D4DF7
:100F200004464FF47A712878B1FBF0F00A49096859
:100F3000B1FBF0F000F062FB48B9102C07D20022A0
:100F40002146501E00F036F800206C6070BD012074
:100F500070BD000014000020200000200C4808B5DF
:100F6000816941F001018161816901F00101009114
:100F7000C16941F08051C161C069064900F08050EB
:100F80000090486820F0E06040F00070486008BDC4
:100F90000010024000000140002809DB00F01F02A1
:100FA000012191404009800000F1E020C0F80011CB
:100FB00070470000F0B40E4B1B68C3F30223C3F16B
:100FC0000704042C00D904241D1D072D01D2002381
:100FD00000E0DB1E012606FA04F56D1E0D409D4063
:100FE0009E40761E164045EA0601F0BC02F0A8B904
:100FF0000CED00E0064A00F0070110684FF6FF0311
:10100000184040EA0120034908431060704700007F
:101010000CED00E00000FA052DE9F84304460078E5
:10102000344FC00752D0F8690025C00008D4F869D1
:1010300040F08050F861F869012500F08050009080
:101040002D480168C90511D40168804641F48071BA
:101050000160FFF743FF064604E0FFF73FFF801BF8
:10106000642822D8D8F80000C005F6D5386A10F4F4
:10107000407020D0A18801F4407181421BD0386AB1
:101080001E49012220F440700A6000220A60386282
:10109000C00710D0FFF722FF064641F2883807E06C
:1010A000FFF71CFF811B414502D90320BDE8F883EF
:1010B000386A8007F4D5386A616820F440700843C4
:1010C00038621DB1F86920F08050F86120788007FF
:1010D00005D57868A16820F44040084378602078FE
:1010E000C00605D57868E16820F480000843786080
:1010F0000020DBE700100240007000404004424244
:101100002DE9F0470D46040067D0DFF81881D8F8C4
:10111000000000F00700A8420CD2D8F8001021F01F
:1011200007012943C8F80010D8F8000000F00700B4
:10113000A84252D120683C4E810712D5400703D502
:10114000706840F4E06070602078000703D5706834
:1011500040F4605070607068A16820F0F0000843AF
:1011600070602078C00727D06068012810D03168EF
:10117000022810D0890700292FDA716821F00301B5
:1011800001437160FFF7AAFE074641F288390CE07F
:1011900031688903EFE78901EDE7FFF79FFEC11B87
:1011A000494502D90320BDE8F0877068616800F006
:1011B0000C00B0EB810FF0D1D8F80010404601F0E0
:1011C0000701A9420BD9016821F0070129430160F9
:1011D000006800F00700A84201D00120E3E7207872
:1011E000400705D57068E16820F4E060084370604E
:1011F0002078000706D57068216920F4605040EA25
:10120000C100706000F038F87168084AC1F303113A
:10121000515CC8400649086006480068FFF77EFE3A
:101220000020C0E70020024000100240604F00088C
:101230002000002018000020044805490068496883
:10124000044AC1F30221515CC840704720000020CD
:1012500000100240704F00080448054900684968C2
:10126000044AC1F3C221515CC840704720000020ED
:1012700000100240704F000812A085B00FC88DE822
:101280000F0014A0144B006804905968134801F033
:101290000C02042A10D0082A0ED1C1F38342C903DC
:1012A0001DF802000AD5596804AAC1F34041515CF7
:1012B0000A4A5043B0FBF1F005B070470849484373
:1012C000FAE7000002030405060708090A0B0C0DE3
:1012D0000E0F1010010200000010024000127A00F0
:1012E00000093D002DE9F84F04006FD02078BE4D75
:1012F000C00747D06868C0F38100012807D068683C
:10130000C0F38100022809D16868C00306D52868A7
:10131000800337D560680028E7D033E06068B0F517
:10132000803F0BD010B1B0F5A02F11D0286820F469
:1013300080302860286820F4802002E0286840F48B
:1013400080302860606888B1FFF7C8FD064609E074
:10135000286840F480202860F0E7FFF7BFFD801B7D
:10136000642873D828688003F7D50BE0FFF7B6FD33
:10137000064604E0FFF7B2FD801B6428F1D8286818
:101380008003F7D42078DFF8648280074FF0010AE9
:101390004FF0000939D5686810F00C0F07D0686865
:1013A000C0F38100022809D16868C00306D4286808
:1013B000800714D52069012808D110E02069B0B158
:1013C000C8F800A0FFF78AFD064605E007E1FFF731
:1013D00085FD801B0228C4D828688007F7D52868B7
:1013E000616920F0F80040EAC10028600DE0C8F80B
:1013F0000090FFF773FD064604E0FFF76FFD801BCA
:10140000022823D828688007F7D4207800072CD535
:101410007748A169D9B1C0F800A0FFF75FFD064683
:1014200004E0FFF75BFD801B02280FD8686A800785
:10143000F7D570484FF4FA510068B0FBF1F0009016
:1014400000BF0098411E0091FAD20EE07CE0C0F887
:101450000090FFF743FD064604E0FFF73FFD801BC9
:10146000022871D8686A8007F7D4207840075BD5D6
:10147000E8690027C00008D4E86940F08050E861BE
:10148000E869012700F0805000905B480168C905B9
:1014900011D40168834641F480710160FFF71EFD9D
:1014A000064604E0FFF71AFD801B64284CD8DBF8E1
:1014B0000000C005F6D5E06801280AD008B105286B
:1014C00013D0286A20F001002862286A20F0040066
:1014D00002E0286A40F001002862E06841F2883B9F
:1014E00088B1FFF7FBFC064609E0286A40F00400DB
:1014F0002862EEE7FFF7F2FC811B59455BD8286AAA
:101500008007F7D50BE0FFF7E9FC064604E0FFF79C
:10151000E5FC811B59454ED8286A8007F7D41FB1D6
:10152000E86920F08050E861E069A8B36968C1F318
:101530008101022946D00228484606D0C8F860003A
:10154000FFF7CCFC044639E035E04746C8F86000B8
:10155000FFF7C4FC064604E0FFF7C0FC801B02282E
:1015600029D828688001F7D4206AB0F5803F05D1DA
:101570006868A16820F4003008436860D4E9080175
:101580000843696821F4741108436860C7F860A0D3
:10159000FFF7A4FC044605E023E0FFF79FFC001BD7
:1015A000022808D828688001F7D51AE0FFF796FCD2
:1015B000001B022802D90320BDE8F88F28688001AB
:1015C000F4D40EE00128F7D06868226A00F4803174
:1015D000914204D1616A00F47010884201D0012068
:1015E000EAE70020E8E70000001002400000424265
:1015F00080044242200000200070004010B5401ED0
:10160000B0F1807F01D3012010BD4FF0E024606174
:101610000F21601701F094FE0020A06107202061D7
:10162000002010BD7047704710B590F83C20012A8B
:1016300022D0012280F83C20CA688C6822F44072D3
:1016400022434C6822F4806222430C6822F4006238
:1016500022430C6922F4805222434C6922F4005246
:101660002243C969002322F480420A4301684A6484
:1016700080F83C30002010BD022010BD70B590F8FD
:101680003C20012A26D0012580F83C50022280F817
:101690003D2002685368946823F070060B6833435A
:1016A00053600D4B02689A4208D0B2F1804F05D0CA
:1016B0000A4B9A4202D00A4B9A4204D1496824F05C
:1016C00080031943916080F83D50002180F83C1060
:1016D000084670BD022070BD002C0140000400408F
:1016E0000008004010B5040003D094F83D0010B18C
:1016F00007E0012010BD002084F83C00204600F0E7
:101700001FF8022084F83D00211D206801F040FBF5
:10171000012084F8460084F83E0084F83F0084F8F5
:10172000400084F8410084F8420084F8430084F8C3
:10173000440084F8450084F83D00002010BD0000FE
:1017400008B500680B49884212D10B48816941F401
:10175000006181618069002200F400600090114600
:101760001920FFF727FCBDE808401920FFF714BC3B
:1017700008BD0000002C01400010024090F83D1010
:10178000012901D001207047022180F83D10016835
:10179000CA6842F00102CA6000680B49884208D05A
:1017A000B0F1804F05D00949884202D008498842EB
:1017B00004D1816801F00701062903D0016841F0D6
:1017C0000101016000207047002C0140000400402E
:1017D0000008004070B5044690F83C00012817D07E
:1017E000012584F83C50022084F83D00206882687E
:1017F00022F0770222F47F4282600868502830D0BD
:101800000DDC20284DD005DC98B310283BD148E0F2
:10181000022070BD302844D0402834D139E06028FF
:1018200028D0702806D0B0F5805F2CD0B0F5005FCE
:1018300029D10AE0CB68D1E90121206801F0EBFA57
:101840002068816841F0770109E0CB68D1E9012186
:10185000206801F0E0FA2068816841F480418160ED
:1018600011E0CA684968206801F090FB50212068A7
:1018700007E016E0CA684968206801F098FB60211B
:10188000206801F0D2FA84F83D50002084F83C0032
:1018900070BDCA684968206801F078FB4021206863
:1018A000EFE7226801461046EBE72DE9F0410D46CF
:1018B000040003D094F83D0018B108E00120BDE811
:1018C000F081002084F83C00204600F041F802201E
:1018D00084F83D002068816844F2070291438160EA
:1018E000211D206801F054FA206881688269066A27
:1018F0002B68AF690B4340F203318A4342EA072267
:10190000A968EF6911434FF6FC429143EA6841EA46
:1019100007210A4329692F6A090141EA0731114366
:101920006A686D6926F0220646EA05152A43836037
:101930002068816154F8460B0262012004F81F09F7
:10194000E0752076E0762077A0750020B7E70000EC
:1019500000B585B0002100910191029103910168C9
:1019600023480122B1F1804F23D0224B99421ED14E
:10197000C16941F00401C161C16901F00401049130
:10198000816941F0080181618069694600F00800C1
:101990000490C020009002921748FFF7AFF9002290
:1019A00011461E20FFF706FB1E20FFF7F5FA05B0D3
:1019B00000BDC16941F00101C161C16901F00101CE
:1019C0000491816941F0040181618069694600F0F8
:1019D000040004900320009002920848FFF78EF95B
:1019E000002211461C20FFF7E5FA1C20DDE700006D
:1019F0000010024000080040000C014000080140B7
:101A000070B590F83E50044690F83F3090F8422070
:101A100090F84300022621B104290BD0012D16D1E4
:101A20000FE0012D13D1012A11D184F83E6084F812
:101A3000426016E0012B0AD1012808D184F83F60EA
:101A40000DE0012B03D1012A01D1012801D0012091
:101A500070BD84F83E6084F83F6084F8426084F88A
:101A6000436091B1042904D001220021206801F0D3
:101A7000C5F901220421206801F0C0F9206801683D
:101A800041F001010160002070BD012200212068A9
:101A9000F2E7704770B50446006801694FF0000531
:101AA000C943890715D4C168C943890711D4E91E00
:101AB000016101202077206880698007204602D0DC
:101AC000FFF7E7FF04E000F0BFF8204600F04EF912
:101AD000257720680169C943490717D4C168C943FC
:101AE000490713D46FF004010161022020772068B8
:101AF000806910F4407F204602D0FFF7CAFF04E05F
:101B000000F0A2F8204600F031F92577206801693D
:101B1000C943090716D4C168C943090712D46FF035
:101B200008010161042020772068C06980072046F1
:101B300002D0FFF7AEFF04E000F086F8204600F088
:101B400015F9257720680169C943C90617D4C1680A
:101B5000C943C90613D46FF0100101610820207732
:101B60002068C06910F4407F204602D0FFF791FF43
:101B700004E000F069F8204600F0F8F825772068C6
:101B80000169C943C90708D1C168C943C90704D15C
:101B9000891E0161204600F03BF920680169C943B4
:101BA000090609D4C168C943090605D46FF080014C
:101BB00001612046FFF736FD20680169C9434906E7
:101BC00009D4C168C943490605D46FF040010161D9
:101BD000204600F0BFF920680169C94389060BD48B
:101BE000C168C943890607D46FF02001016120460E
:101BF000BDE87040FFF717BD70BD000000B585B0AF
:101C00000021009101910291039100680B498842E3
:101C100012D10B48816941F00401816180696946F4
:101C200000F0040004904FF4106000900220019036
:101C300003900448FFF762F805B000BD002C014096
:101C40000010024000080140704770B5044690F84B
:101C50003C000D4601280AD0012084F83C0042B126
:101C6000042A18D0082A2AD00C2A4DD139E00220A3
:101C700070BD206801F0E2F82068816941F0080138
:101C800081612068816921F0040181612068816996
:101C90002A69114311E0206801F0FCF8206881698D
:101CA00041F4006181612068816921F48061816172
:101CB000206881692A6941EA0221816124E0206863
:101CC00001F016F92068C16941F00801C16120687E
:101CD000C16921F00401C1612068C1692A69114309
:101CE00011E0206801F030F92068C16941F4006119
:101CF000C1612068C16921F48061C1612068C16946
:101D00002A6941EA0221C161002084F83C0070BDCB
:101D100010B5040003D094F83D0010B107E0012095
:101D200010BD002084F83C00204600F01EF8022080
:101D300084F83D00211D206801F02AF8012084F874
:101D4000460084F83E0084F83F0084F8400084F8A0
:101D5000410084F8420084F8430084F8440084F889
:101D6000450084F83D00002010BD7047704700001A
:101D700010B5044649B104290AD008290BD094F8BB
:101D8000410001280AD0012010BD94F83E00F8E778
:101D900094F83F00F5E794F84000F2E7022041B3E1
:101DA000042929D008292AD084F84100012220687A
:101DB00001F024F813492068884203D1426C42F4B0
:101DC000004242642068884208D0B0F1804F05D0BC
:101DD0000D49884202D00D49884204D1816801F042
:101DE0000701062903D0016841F0010101600020CC
:101DF00010BD84F83E00D9E784F83F00D6E784F8A8
:101E00004000D3E7002C01400004004000080040DF
:101E10002DE9F05F444988427ED1444C0521444F6E
:101E2000E088401C80B2B0FBF1F2E08001FB1200C0
:101E30000025E8BB3F480068416A3F4A494209B271
:101E4000618013685B6A1EB2A680456210684562B5
:101E50000846FEF7B9FBDFF8E4804146FEF7E3F9F8
:101E6000FEF7E1FBDFF8D8A04FF033394A4653467E
:101E7000FEF724FB00223B46FEF720FB6FF0010B30
:101E80005A46FEF78AFBFEF7F9FBA0603046FEF7E4
:101E90009BFB4146FEF7C7F9FEF7C5FB4A46534692
:101EA000FEF70CFB00223B46FEF708FB5A4600E01B
:101EB00005E0FEF772FBFEF7E1FBE060E580E088FD
:101EC0000A21B0FBF1F201FB1200002829D1A06821
:101ED000FEF7A9FB1B4A1C4BFEF77EFA00223B468D
:101EE000FEF77AFA06460F462069FEF79CFB32465B
:101EF0003B46FEF7CAF9FEF7C1FB20611348E168D3
:101F000000F0C8FEFEF776FB06461148A16800F017
:101F1000C1FEFEF76FFB00E003E0314600F058FD24
:101F2000E580BDE8F09F0000900000200000002048
:101F30000000264020010020D80000200000C842F8
:101F4000333323407B14AE47E17A943F540300209F
:101F5000340300207047704770470000F8B50268EE
:101F600004461068D168536910F00F0F4FF0000558
:101F700054D003F0010601F4907737435FD0C207D5
:101F800005D0CA0503D5226C42F001022264420743
:101F900005D5DA0703D0226C42F0020222648207E0
:101FA00005D5DA0703D0226C42F00402226402074E
:101FB00007D501F02002324303D0226C42F0080220
:101FC0002264226C002A35D0800604D5880602D50A
:101FD000204601F01EF820684069216CC0F3801093
:101FE00001F008010143204625D000F0FAFF2068E7
:101FF000416949061BD5416921F040014161A06B4F
:10200000A8B158494163A06BFEF70CFE002811D01F
:10201000A06B416B01B0BDE8F040084783060ED5C8
:102020008B060CD52046BDE8F84000F0F2BF2046F4
:10203000FFF792FFF8BDFFF78FFF2564F8BD266B11
:102040002023012E52D1C60650D5CE064ED510689B
:1020500050680090506940062AD5A16B0868406816
:102060000004000CEAD0A68D8642E7D9E085886995
:10207000202818D0D06820F48070D0602068416992
:1020800021F0010141612068416921F04001416175
:1020900084F83E3025632068C16821F01001C160DA
:1020A000A06BFEF79BFDA08DE18D401A81B219E077
:1020B000A08DE18D401A81B2E08D0028BED00029AC
:1020C000BCD0D06820F49070D0602068426922F0C3
:1020D0000102426184F83E3025632068C26822F024
:1020E0001002C2602046FFF736FFF8BD05062BD56B
:1020F0000D0629D594F83D002128F6D1A068B0F549
:10210000805F01D12069B0B1206A411C2162216841
:1021100000784860E08C401E0004000CE084E4D1AC
:102120002068C16821F08001C1602068C16841F069
:102130004001C160F8BD206A0088C0F3080050600B
:10214000206A801C2062E5E74006F3D54806F1D5F9
:10215000D168204621F04001D16084F83D3000F084
:1021600084F9F8BDD32F000870B5040004D094F8AA
:102170003D00002510B106E0012070BD84F83C5000
:10218000204600F023F8242084F83D002068C16830
:1021900021F40051C160204600F096FF20680169DB
:1021A00021F4904101612068416921F02A014161D7
:1021B0002068C16841F40051C1602564202084F882
:1021C0003D0084F83E00002070BD0000F0B585B0F1
:1021D00000240094019402940394414900683F4F05
:1021E000022203233F4D0E15B84225D1886940F4E1
:1021F00080408861886900F480400490886940F0DC
:10220000040088618869039300F004000490481575
:10221000CDE9000269462846FEF770FDCDE900646D
:10222000694628460294FEF769FD002211462520E2
:10223000FEF7C0FE25204DE02B4FB84221D1C869E2
:1022400040F40030C861C86900F400300490886927
:1022500040F0040088618869694600F00400049039
:102260000420CDE9000203932846FEF747FD08202D
:10227000CDE90004694628460294FEF73FFD05B00B
:10228000F0BD1A4DA842FAD1C86940F48020C86157
:10229000C86900F480200490886940F008008861D3
:1022A0008869134D00F00800CDE90330CDE90062E4
:1022B00069462846FEF722FDE814CDE90004694688
:1022C00028460294FEF71AFD002211462720FEF749
:1022D00071FE2720FEF760FED1E7000000380140C4
:1022E0000010024000080140004400400048004047
:1022F000000C01402DE9F84F044690F83E00984646
:1023000015460E46202855D10EB305B394F83C006F
:1023100001284FD0012084F83C004FF00009C4F898
:102320004090222184F83E10C4F83090FEF7D6FD8C
:10233000A5858246E585A0684FF48057B84201D153
:10234000206938B13546002684F83C9027E001200A
:10235000BDE8F88F0025F7E75346002220212046EC
:10236000CDF8008000F00CFF08B10320F0E725B1A4
:10237000A068B8421BD038B108E020684068C0F3BC
:10238000080026F8020B07E0206980B12068406849
:1023900000F07F0005F8010BE08D401EE085E08D28
:1023A0000028D9D1202084F83E000020D0E7206802
:1023B0004068EFE70220CBE770472DE9F843044679
:1023C00090F83D001F4615460E4620284BD1C6B159
:1023D000BDB194F83C00012845D0012084F83C00B0
:1023E0004FF00008C4F84080212084F83D00FEF73B
:1023F00075FDA5848146E584A068B0F5805F03D0B3
:1024000004E00120BDE8F883206920B135460026AC
:1024100084F83C800EE00025FAE78021204600F099
:10242000AFFEA0B9ADB115F8010B21684860E08C92
:10243000401EE084E08C4B464FF0000200970028DD
:10244000EBD14FF04001204600F09AFE30B103205E
:10245000D8E736F8020BC0F30800E6E7202084F83E
:102460003D000020CEE70220CCE77047064908B5C2
:102470000968064AC908B1FBF2F14143009100BF67
:10248000491E0091FBD208BD2000002040420F00F1
:1024900070B5204D0024012220212846FEF719FDA9
:1024A0000F20FFF7E3FF002220212846FEF711FD51
:1024B000194D1A4E07E00120641CFFF7D7FFAC420C
:1024C00001D9174870BD40213046FEF7FDFC0028B9
:1024D000F1D0002408E00120641CFFF7C7FFAC42E4
:1024E00002D94FF0404070BD40213046FEF7ECFC71
:1024F0000128F0D06000FEF770F80A4A0A4BFDF799
:102500006BFF4FF0FF32FEF748F8BDE87040FEF772
:10251000B5B80000000C0140A08601000008014091
:10252000000080BF4C37894160E5A03FFEE7000016
:102530002DE9F04101220C4DD40321462846FEF737
:10254000C8FC0122094F160331463846FEF7C1FC8C
:10255000002231463846FEF7BCFC21462846BDE83D
:10256000F0410022FEF7B5BC00080140000C01401C
:1025700070B50122D1030948FEF7ABFC084D4FF4BA
:102580008054002221462846FEF7A3FC2146284617
:10259000BDE870400122FEF79CBC0000000801402D
:1025A000000C014070B50122064DD4032146284697
:1025B000FEF78FFC21462846BDE870400022FEF75A
:1025C00088BC0000000801403EB500211148009180
:1025D00001910F4A0291026081600173017501242B
:1025E0004FF460220461C2614160FEF73DFA08B118
:1025F000FEF7B9F90420CDE90004022002906946F3
:102600000448FEF7B3F9002801D0FEF7ACF93EBD4F
:1026100000280140600000202DE9F04F85B0002423
:102620004D480094019402940394816941F0100193
:102630008161816901F010010491816941F02001FB
:102640008161816901F020010491816941F00401F7
:102650008161816901F004010491816941F00801FF
:1026600081618069DFF8F4A000F008004FF4204594
:102670000490002229465046FEF72BFC0122170346
:1026800039463748FEF725FC42F228080022414629
:102690003348FEF71EFCDFF8CCB04FF400490122AE
:1026A00049465846FEF715FC00950226012503967B
:1026B000CDE9015469465046FEF720FBE020CDE904
:1026C0000004694658460294FEF718FB0320CDE942
:1026D0000004694622480294FEF710FBCDE900751C
:1026E000CDE9025669461E48FEF708FBCDF800808A
:1026F0000396CDE9015469461948FEF7FFFA1A48D6
:102700000097CDE9010569465846FEF7F7FACDE98D
:102710000095CDE9025669465846FEF7EFFA1020BB
:1027200000901248CDE9010669460D48FEF7E6FA29
:10273000002211460A20FEF73DFC0A20FEF72CFC81
:10274000002211462820FEF735FC2820FEF724FC45
:1027500005B0BDE8F08F00000010024000100140FD
:10276000000C014000080140000021100000111081
:1027700010B596B000240F941094119412941394F1
:102780001C2168461494FDF7E4FC202107A8FDF7FE
:10279000E0FC2D482B49016040F29F51C0E9011433
:1027A0006321C0E903148021C0E90541FEF79AFFC7
:1027B00008B1FEF7D8F84FF480500F900FA92248C7
:1027C000FFF708F808B1FEF7CEF81F48FFF7A0FAA8
:1027D00008B1FEF7C8F8139413A91B481494FEF728
:1027E0004DFF08B1FEF7BFF8602000903220CDE920
:1027F0000104039404940594002269461248069447
:10280000FFF723FA08B1FEF7AEF80C2269460E482E
:10281000FFF71BFA08B1FEF7A6F80794089409948D
:102820004FF400500A94CDE90B4007A906480E94D6
:10283000FEF7FAFE08B1FEF796F80348FFF7DEF957
:1028400016B010BD002C01409000002010B58CB0D7
:1028500024216846FDF77DFC0024164809944FF0BA
:1028600080410A94C0E900144FF6FF71C0E90241AB
:10287000046184610320CDE900040120CDE9020454
:1028800006210491CDE90540CDE907416946094893
:10289000FFF70BF808B1FEF766F8099409A9054897
:1028A0000A94FEF7EBFE002801D0FEF75CF80CB0AE
:1028B00010BD0000D800002010B58CB0242168465F
:1028C000FDF747FC00241648099414490A94C0E90E
:1028D00000144FF6FF71C0E90241046184610320D6
:1028E000CDE900040120CDE9020406210491CDE9DF
:1028F0000540CDE9074169460948FEF7D6FF08B112
:10290000FEF731F8099409A905480A94FEF7B6FEC6
:10291000002801D0FEF727F80CB010BD00080040D9
:10292000200100200C4810B50A4901604FF4E13144
:102930004160002181600C22C160C0E90412816104
:10294000C161FFF711FC002803D0BDE81040FEF77D
:102950000AB810BD00380140680100200C4810B5CD
:102960000A4901604FF4E1314160002181600C228D
:10297000C160C0E904128161C161FFF7F5FB002865
:1029800003D0BDE81040FDF7EEBF10BD004400408D
:10299000AC0100200C4810B50A4901604FF4E13148
:1029A0004160002181600C22C160C0E90412816194
:1029B000C161FFF7D9FB002803D0BDE81040FDF747
:1029C000D2BF10BD00480040F0010020FEE700002B
:1029D00070B51A4E4542C1F1000401D5012200E054
:1029E000002208213046FEF774FA4FF40051002C03
:1029F00001DA012200E000223046FEF76AFA1048B0
:102A00006FF06201002D05DA8D4200DA0D46643563
:102A1000026803E0632D00DD632502685563002C26
:102A200005DA8C4200DA0C460068643403E0632C5B
:102A300000DD63240068046470BD0000000C0140E8
:102A400090000020FEE770B50025002105F1B000E0
:102A500000F0FDF80021084600F0F9F800211020F0
:102A600000F0F5F800240121002000F0F0F8641CCB
:102A7000E4B2802CF7D36D1CEDB2082DE5D370BD08
:102A800010B54FF44870FEF719F90021AE2000F0A0
:102A9000DEF80021084600F0DAF80021102000F0EE
:102AA000D6F80021402000F0D2F80021B02000F03C
:102AB000CEF80021812000F0CAF80021FF2000F0AC
:102AC000C6F80021A12000F0C2F80021A62000F0E5
:102AD000BEF80021A82000F0BAF800213F2000F045
:102AE000B6F80021C82000F0B2F80021D32000F091
:102AF000AEF80021084600F0AAF80021D52000F029
:102B0000A6F80021802000F0A2F80021D82000F0D3
:102B10009EF80021052000F09AF80021D92000F04D
:102B200096F80021F12000F092F80021DA2000F060
:102B30008EF80021122000F08AF80021DB2000F03E
:102B400086F80021302000F082F800218D2000F06E
:102B50007EF80021142000F07AF80021BDE8104032
:102B6000AF2000F074B810B50A460446002102F107
:102B7000B00000F06CF8102040EA1410002100F0C2
:102B800066F804F00F00BDE81040002100F05FB8C7
:102B90002DE9F041203A00240F468046D5B27F2827
:102BA00003D900208F1C8046FFB2102B394610D06D
:102BB000FFF7D9FF164905EB450001EB4005012160
:102BC000285D00F044F8641CE4B2062CF7D3BDE89D
:102BD000F081FFF7C8FF0F4E04EB05100121305CB8
:102BE00000F035F8641CE4B2082CF5D37F1CF9B270
:102BF0004046FFF7B8FF002404EB051030440121E4
:102C0000007A00F024F8641CE4B2082CF4D3DEE768
:102C1000784F0008A05100082DE9F041984617466A
:102C20000E46044600250DE0434631462046FFF798
:102C3000AFFF0834E4B2782C02D90024B61CF6B2F7
:102C40006D1CEDB27A5D002AEED1BDE8F081C0B214
:102C500009B100F03ABB00F021BB00000A49002096
:102C60000A4B486008608860C860C1E90403084AEC
:102C7000C1E906202031486008608860C860C1E969
:102C80000403C1E906207047340300200000A0407F
:102C9000000040402DE9F04104460068FDF7BDFA10
:102CA0000546A06029462069FDF765FA20610746C0
:102CB0002846E168FDF7B1FAE169FDF7B4FA064686
:102CC0003946A069FDF7AFFA074629466069FDF766
:102CD000AAFA3946FDF74FFA3146FDF74CFAE5609E
:102CE0006060BDE8F08170477047FEF7FDB830B511
:102CF00093B028216846FDF72CFA14210AA8FDF7A5
:102D000028FA002401210F9410940804CDE9001042
:102D100011941294029402250491CDE907504FF4C6
:102D2000E01009906846FEF7DDFA08B172B6FEE7DA
:102D30000F20CDE90A054FF48060CDE90C40022157
:102D40000AA80E94FEF7DCF908B172B6FEE74FF45C
:102D5000004011900F950FA8FEF75EF9002801D0F2
:102D600072B6FEE713B030BD704700000148FEF7B1
:102D700091BE0000900000200148FEF78BBE0000CD
:102D8000D80000200148FEF785BE00002001002089
:102D9000F0B50268164C174D174E4FF08047A04211
:102DA00005D0B84203D0A84201D0B04203D122F0EE
:102DB00070034A681A43A04205D0B84203D0A84223
:102DC00001D0B04203D122F44073CA681A434B6960
:102DD00022F080021A4302608A68C2620A68826234
:102DE000A04201D10969016301214161F0BD0000E8
:102DF000002C0140000400400008004010B501F024
:102E00001F010123046A8B409C430462036A8A40C9
:102E10001343036210BD10B5846842EA032224F410
:102E20007F440A432243826010BD826822F0700210
:102E30000A4342F0070181607047000030B5026A22
:102E400022F001020262036A4268846924F0730579
:102E50000C682C4323F002058B682B430C4DA842D1
:102E600006D123F00805CB6843EA050323F00403E9
:102E700007D14D6922F4407245EA02058A6942EAA7
:102E800005024260846149684163036230BD00000D
:102E9000002C014030B5026A22F010020262026A80
:102EA000436884690D6824F4E64444EA05248D6887
:102EB00022F0200242EA05120C4DA84206D1CD684C
:102EC00022F0800242EA051222F0400207D14D6949
:102ED00023F4406343EA85038D6943EA8503436035
:102EE000846149688163026230BD0000002C0140AA
:102EF00030B5026A22F480720262036A4268C469D1
:102F000023F4007324F073050C682C438D6843EAA6
:102F100005230C4DA84206D1CD6823F4006343EA93
:102F2000052323F4806307D14D6922F4405242EA1D
:102F300005128D6942EA05124260C4614968C163A5
:102F4000036230BD002C014030B5026A22F4805289
:102F50000262036A4268C4690D6824F4E64444EAE4
:102F600005248D6823F4005343EA0533064DA84237
:102F700004D14D6922F4804242EA85124260C46164
:102F800049680164036230BD002C014010B5046A39
:102F9000036A23F001030362836923F0F00343EA29
:102FA000021324F00A020A438361026210BD10B5C5
:102FB000036A23F0100303628469036A24F47044F3
:102FC00044EA023223F0A00343EA01118261016264
:102FD00010BD10B5406A0021C185C184FEF7BCFF59
:102FE00010BD0168CA6822F49072CA6001684A691B
:102FF00022F001024A61016B012904D10168CA680B
:1030000022F01002CA60202180F83E1000210163E6
:10301000704708B590F83E10222901D0022008BD63
:1030200081684FF48053994201D1026922B1826ACA
:1030300099421BD049B10AE00268816A5268C2F322
:1030400008020A80816A891C08E0016971B101687F
:10305000496801F07F011170816A491C8162C18D4C
:10306000491E0904090CC18503D019E001684968AB
:10307000F1E70168CA6822F02002CA600168CA68E4
:1030800022F48072CA6001684A6922F001024A6132
:10309000202180F83E10016B012903D0FFF78CF945
:1030A000002008BD002101630168CA6822F01002F7
:1030B000CA6001680A68D20602D50A6849680091A8
:1030C000818DFEF748FFEBE770B5044600680169A3
:1030D000E26821F4405111430161A1682069014374
:1030E000606901432068C26841F20C639A430A4355
:1030F000C26020684169A26921F4407111434161B5
:103100001E492068884202D1FEF7A6F801E0FEF7CA
:1031100093F800EBC00101EB0011606864228000AD
:10312000B1FBF0F3B3FBF2F36FF018067343B1FB9E
:10313000F0F5B1FBF0F605EB8305322303EB051543
:10314000B5FBF2F5B6FBF2F605F0F00505EB06155A
:10315000B1FBF0F6B1FBF0F0B0FBF2F06FF018014C
:10316000484306EB800003EB0010B0FBF2F021684F
:1031700000F00F002844886070BD00000038014056
:103180002DE9F0411E46174688460446069D1CE080
:10319000681C1AD025B1FDF7A1FE801BA84214D9E6
:1031A0002068C16821F4D071C1602068416921F0B4
:1031B00001014161202084F83D0084F83E00002098
:1031C00084F83C000320BDE8F0812068016838EAFB
:1031D000010004D00020B842DAD00020F3E701203B
:1031E000F9E700000D4810B500680068800610D5AA
:1031F0000B4A1078FF2801D3002010700949C0B293
:103200000144401C10704FF47A7301220348FFF709
:1032100071F8BDE810400148FEF7A0BE680100202B
:1032200000000020340200200148FEF797BE000095
:10323000F0010020FEE700002DE9F047154F04469D
:103240004FF40046002231463846FDF742FEDFF8D3
:10325000489000254FF4805804F08000802816D054
:10326000002241464846FDF734FE6006040E012266
:1032700031463846FDF72DFE002231463846FDF72F
:1032800028FE6D1CEDB2082DE6D3BDE8F0870122C3
:10329000E7E7000000080140000C014010B50446BB
:1032A000FFF746F97820FFF7C7FFFFF77BF900200B
:1032B000FFF7C2FFFFF776F92046FFF7BDFFFFF7E4
:1032C00071F9BDE81040FFF753B910B50446FFF798
:1032D0002FF97820FFF7B0FFFFF764F94020FFF7E0
:1032E000ABFFFFF75FF92046FFF7A6FFFFF75AF99C
:1032F000BDE81040FFF73CB90FB4054B10B503A96A
:10330000044A029800F0EEF810BC5DF814FB0000CF
:103310001D3C0008240000200FB4084B10B504A980
:1033200002AA039800F0DEF8044602A9002000F08B
:1033300070FC204610BC5DF814FB0000133C000834
:103340000907090E002804DB00F1E02080F80014D2
:10335000704700F00F0000F1E02080F8141D704766
:1033600002E008C8121F08C1002AFAD1704770474E
:10337000002001E001C1121F002AFBD170470000AC
:103380002DE9FF5FDDE90220010DDDF838B00243D1
:1033900018D044F61050A1F2FF3141430D140F989C
:1033A000012820D0A5EB0B00401C5FEA000A4FF07B
:1033B0000004474EDFF81C91A046504616D5CAF1CE
:1033C000000728E00F98012443A2012808D000211B
:1033D00000980F9BC0E90021C0E90243BDE8FF9FB0
:1033E0006FEA0B01F4E7CBF10000DEE7074612E0DD
:1033F000F80707D02246334640464946FCF7ECFF23
:10340000804689462246334610461946FCF7E4FFBB
:1034100004460E467F10002FEAD1DDE90201BAF121
:10342000000F42464B4602DAFCF7D6FF01E0FDF7FB
:1034300045F804460E460022284BFDF707F903D84D
:103440004FF0FF30014607E00022254B2046314671
:10345000FCF71BFFFDF72AFA102409E0002C0ADB19
:103460000A220023FDF73CF9019B30321A55641EF5
:1034700050EA0102F2D1641C019AC4F11103144410
:103480000F9A012A03D0012208430DD10AE0084314
:1034900004D000204FF0110B0F9080E7A3EB0B0539
:1034A0006D1E0DE05B4504DD4FF0000205F10105E6
:1034B00004E003DA4FF00002A5F10105002AECD088
:1034C00000980F99C0E90231C0E9004586E7000085
:1034D000000024400000F03F300000000000F043F6
:1034E0000000E03F2DE9FF4F95B09B468946064618
:1034F00000250FE2252877D100242746F84A01212C
:10350000059400E0044316F8013F203B01FA03F064
:103510001042F7D130782A2811D06FF02F0330787D
:10352000A0F13002092A16D8059A44F0020402EBF1
:10353000820203EB42021044761C0590EFE759F833
:10354000042B0592002A03DA504244F400540590FB
:1035500044F00204761C30782E2816D116F8010F9C
:1035600044F004042A280DD06FF02F023078A0F127
:103570003003092B09D807EB870302EB4303C71875
:10358000761CF3E759F8047B761C30786C280FD052
:1035900006DC4C2817D068280DD06A2814D104E026
:1035A000742810D07A280FD10DE044F400140AE0FA
:1035B00044F4801401E044F440147278824202D151
:1035C00004F58014761C761C307866280BD013DC4A
:1035D000582877D009DC002875D04528F6D0462831
:1035E000F4D047281AD19DE118E0632835D064282B
:1035F00079D0652812D195E1702873D008DC67284E
:10360000F1D069286FD06E280DD06F2806D1B5E0B3
:1036100073282CD0752875D0782874D05A461799FD
:1036200090476D1C75E1C4F30250022809D00328AD
:103630000DD0D9F8001004280DD00D6009F104094F
:1036400067E1D9F80010EA17C1E90052F6E7D9F8A6
:1036500000100D80F2E70D70F0E719F8041B8DF8EB
:10366000001000208DF80100EA46012003E059F81F
:1036700004AB4FF0FF3061074FF0000102D40DE0C2
:1036800008F101018846B9420FDA8045F8DB1AF8E3
:1036900008100029F4D108E008F1010188468142B0
:1036A000FADB1AF808100029F6D105985B46A0EB62
:1036B000080721463846179A00F094FA284400EB90
:1036C000080507E04DE029E10DE01AF8010B5A4624
:1036D00017999047B8F10108F7D25B462146384662
:1036E000179A13E142E00A220092C4F302524FF00B
:1036F000000A022A08D059F804CB032A4FEAEC71D9
:103700000AD00DE029E02AE009F1070121F00702C3
:10371000F2E802C1914609E00FFA8CFC4FEAEC7125
:10372000042A03D14FFA8CFC4FEAEC71002907DA26
:103730000A460021DCF1000C61EB02012D2202E0BF
:10374000220504D52B228DF80420012203E0E20794
:1037500001D02022F7E7904659E00A2102E010222A
:103760000DE010214FF0000A00910BE010224FF005
:10377000000A44F004040827009203E008224FF0F6
:10378000000A0092C4F30252022A05D059F804CB71
:103790000021032A08D009E009F1070121F00702FE
:1037A000F2E802C1914605E01FFA8CFC042A01D11F
:1037B0000CF0FF0C4FF00008220728D5702806D027
:1037C000009B83F0100353EA0A0305D00EE0402269
:1037D0008DF80420012208E05CEA010206D03022C4
:1037E0008DF804208DF8050002229046009B83F09E
:1037F000080353EA0A030AD15CEA010201D1620715
:1038000005D530228DF804204FF001087F1E58287E
:1038100004D034A003900EA802900DE036A0F9E782
:1038200053466046009AFCF75BFF84460398825C2F
:103830000298401E029002705CEA0100F0D10298EA
:1038400006A9081A00F1200A600702D524F4803482
:1038500000E00127574502DDA7EB0A0000E0002049
:1038600000EB0A01009005984144401A0590E003DE
:1038700006D45B462146179A059800F0B3F9054433
:10388000002706E001A85A46C05D179990476D1CB5
:103890007F1C4745F6DBE0030CD55B462146179AB3
:1038A000059800F09FF9054404E030205A46179926
:1038B00090476D1C0099481E00900029F5DC08E037
:1038C000029802995A460078491C0291179990472C
:1038D0006D1CBAF10001AAF1010AF1DC65E10000FA
:1038E00009280100303132333435363738396162D6
:1038F000636465660000000030313233343536379A
:1039000038394142434445460000000000F058F970
:103910000544761C307800287FF4ECAD19B02846B9
:10392000BDE8F08F620700D4062709F1070222F0F4
:10393000070CFCE80223E14603F000485FEA080CAC
:1039400002D00FF2702C0DE05FEA045C02D50FF29A
:10395000682C07E05FEAC47C02D00FF2602C01E023
:10396000AFF2700C4FF0FF3823F00043CDF850C099
:1039700065280CD006DC452809D046281DD04728EC
:103980003DD13DE0662818D067287ED138E000217F
:10399000112F01DB112000E0781CCDE9000106A900
:1039A0000EA8FFF7EDFCDDE90F010E9A039100214F
:1039B000009207F1010A04914DE04FF0004000979A
:1039C000CDE9011006A90EA8FFF7DAFCDDE90F0228
:1039D00003920E9B11990022DDF80CA00093049233
:1039E00011B9791C00EB010AB7EB0A0004D4C0F14D
:1039F000FF3007F1010A0490AAEB0700019044E0B0
:103A0000012F00DA01270021112F01DD112000E034
:103A10003846CDE9000106A90EA8FFF7B1FCDDE9A3
:103A20000F010E9A0391002104910092BA462107DA
:103A30000CD40399514500DA8A46BAF1010F05DD2D
:103A4000009AAAF10101515C302908D0B84202DA8B
:103A500010F1040F06DA0121CDE9011015E0AAF1F9
:103A60000101E9E7002805DC049901440491AAEB6F
:103A7000000102E0411C514500DD8A460499401ACC
:103A8000401C01904FF000400290200704D40198A0
:103A9000504501DBCDF8048000208DF84F000298DE
:103AA0000DF14F07B0F1004F25D02B200E9002985A
:103AB0004FF0020800280CDA404202902D200E90B0
:103AC00007E00A210298FCF7F5FD3031029007F873
:103AD000011DB8F10001A8F10108F2DC02980028EC
:103AE000EFD1791E0E980870307800F0200040F079
:103AF000450007F8020D12A8C01B00F10708149832
:103B0000007800B1012000EB0A01019801EBE0719F
:103B100005984144401A401E0590E00306D45B46D8
:103B20002146179A059800F05DF80544149800782E
:103B300018B15A46179990476D1CE00324D55B468F
:103B40002146179A059800F04DF805441CE00498AA
:103B5000002807DBDDE90301884203DD0098405CB3
:103B6000179901E0179930205A469047049805F1BB
:103B70000105401C04900198401E019004D12E20A4
:103B80005A46179990476D1CBAF10001AAF1010A33
:103B9000DDDC05E017F8010B5A46179990476D1CBC
:103BA000B8F10001A8F10108F4DC5B462146179A40
:103BB0000598ABE62D0000002B000000200000005F
:103BC0002DE9F041044600251E461746880404D41A
:103BD00005E039462020B0476D1C641EF9D5284603
:103BE000BDE8F0812DE9F041044600251E469046CF
:103BF000C80301D5302700E02027880404D505E05C
:103C000041463846B0476D1C641EF9D52846BDE8CC
:103C1000F0810A68531C0B601070704713B54FF6A3
:103C2000FF73012269460248FEF7C7FB00981CBDDE
:103C3000680100202DE9F84FFDF75EF9FFF757F80E
:103C4000FEF7EAFCFEF76EFEFEF792FDFEF7FEFDC4
:103C5000FEF732FEFEF7B8FCFEF780FEFEF79AFE96
:103C6000FEF70EFFFEF7EFFE0021FE48FEF780F89C
:103C70000C21FC48FEF77CF83C21FB48FDF7C0FE18
:103C80003C21FA48FDF7BCFEF748FDF777FDF74801
:103C9000FDF774FDF348FDF771FDFEF7DFFFF44813
:103CA0000068C16841F02001C1604FF48051F148C3
:103CB000FDF70AF9F04DF14F4FF47A74002849D11D
:103CC0002846294601F02AF9ED4E3868FCF7ABFC8E
:103CD00002460B46EBA1EF48FFF71EFBED48FCF751
:103CE00043FA82B23223EB49EB48FEF766FB3868B1
:103CF000FCF799FC0246E7480B46E8A12338FFF79A
:103D00000BFBE44A0C23233A02210020FEF784FF38
:103D10003868B042D9DD0021084601F0FFF820469E
:103D2000FCF7CCFF4FF03F414FF07C5001F0F6F82C
:103D300040F21450FCF7C2FF0021084601F0EEF8F3
:103D40002046FCF7BBFF2846294601F0E7F820464D
:103D5000FCF7B4FFA1462046FCF7B0FF4846FCF74D
:103D6000ADFF4846FCF7AAFF4846FCF7A7FF4846C8
:103D7000FCF7A4FFDFF834B34FF4004801224446B7
:103D800041465E465846FDF7A4F84FF4FA7A50468D
:103D9000FCF794FF002221463046FDF79AF848468A
:103DA000FCF78CFF012221463046FDF792F8504681
:103DB000FCF784FF002221463046FDF78AF848468A
:103DC000FCF77CFF012221463046FDF782F8504681
:103DD000FCF774FF002221463046FDF77AF848468A
:103DE000FCF76CFFB248014601F098F84846FCF732
:103DF00065FFA04EAF4C0A20FCF760FF3868FCF767
:103E000012FC02460B469FA1A248FFF785FAA14883
:103E1000FCF7AAF982B232239E499F48FEF7CDFAF9
:103E20003868FCF700FC02469A480B469BA12338F1
:103E3000FFF772FA974A0C23233A02210020FEF77B
:103E4000EBFE20213046FDF73FF8012811D18021FB
:103E50003046FDF739F801280BD101212046FDF746
:103E600033F8012805D102212046FDF72DF801285D
:103E700006D020213046FDF727F8012809D01AE0A6
:103E80002846294601F04AF84FF4FA60FCF716FF7D
:103E900072E080213046FDF717F801280BD101218F
:103EA0002046FDF711F8012805D102212046FDF733
:103EB0000BF80028E4D020213046FDF705F888B93A
:103EC00080213046FDF700F801280BD10121204662
:103ED000FCF7FAFF012805D102212046FCF7F4FF88
:103EE0000128CDD020213046FCF7EEFF88B9802193
:103EF0003046FCF7E9FF01280BD101212046FCF7F1
:103F0000E3FF012805D102212046FCF7DDFF002850
:103F1000B6D020213046FCF7D7FF80B9802130464B
:103F2000FCF7D2FF58B901212046FCF7CDFF01284C
:103F300005D102212046FCF7C7FF0128A0D020218F
:103F40003046FCF7C1FF01280FD180213046FCF735
:103F5000BBFF012809D101212046FCF7B5FF20B99C
:103F600002212046FCF7B0FF30B120213046FCF79B
:103F7000ABFF002874D0EDE00021084600F0CEFF32
:103F80000122D1035846FCF7A4FF5046FCF796FEE9
:103F900000224FF400415846FCF79BFF4FF47A791A
:103FA0004846FCF78BFE0122D1035846FCF791FFEF
:103FB0005046FCF783FE00224FF400415846FCF7C0
:103FC00088FF4846FCF77AFE0122D1035846FCF7E9
:103FD00080FF5046FCF772FE00224FF40041584625
:103FE000FCF777FF4846FCF769FEFEF751FA3249C5
:103FF000FCF7C1F8FCF717FB804626480B460091FA
:1040000042462EA12338FFF787F9224A00210C23CC
:10401000233A0846FEF700FE42462BA11D48009BAE
:10402000FFF77AF91B48FCF79FF882B2322319494F
:104030001948FEF7C2F94846FCF740FE4846FCF72F
:104040003DFE4846FCF73AFE4846FCF737FE0122A3
:10405000D1035846FCF73DFF5046FCF72FFE39E0F0
:1040600065E0000090000020D80000202001002022
:104070006801002000080140CDCC4C3E100000201B
:104080000000AA424D696C65616765252E32660D98
:104090000A0000004B000020F00100204D696C6513
:1040A0006167653A252E326620000000001001404D
:1040B0003333B33E000C01400000E040673A252E48
:1040C0003266636D00000000673A252E32660D0AE5
:1040D0000000000000224FF400415846FCF7F9FEB2
:1040E0004846FCF7EBFD0122D1035846FCF7F1FEF0
:1040F0005046FCF7E3FD00224FF400415846FCF720
:10410000E8FE4846FCF7DAFD0122D1035846FCF7E9
:10411000E0FE5046FCF7D2FD00224FF40041584625
:10412000FCF7D7FEDFF81894DFF818847BE08021D5
:104130003046FCF7C9FE68B901212046FCF7C4FEF1
:1041400040B902212046FCF7BFFE18B9FE480146DF
:1041500000F0E4FE20213046FCF7B6FE98B980213D
:104160003046FCF7B1FE70B901212046FCF7ACFEE9
:10417000012808D102212046FCF7A6FE18B9F34910
:10418000F34800F0CBFE20213046FCF79DFE98B9A5
:1041900080213046FCF798FE70B901212046FCF7DB
:1041A00093FE48B902212046FCF78EFE012803D178
:1041B000E849E74800F0B2FE20213046FCF784FED3
:1041C00098B980213046FCF77FFE01280DD10121EE
:1041D0002046FCF779FE40B902212046FCF774FE28
:1041E00018B9DB49D94800F099FE20213046FCF788
:1041F0006BFE01287FF4FFAD80213046FCF764FEA2
:104200000028F7D101212046FCF75EFE0028F1D1FD
:1042100002212046FCF758FE0028EBD1CC49CD48BE
:1042200000F07CFEE7E53868FCF7FDF902460B4636
:10423000AFF2B011C848FFF76FF8C748FBF794FF1B
:1042400082B23223C449C548FEF7B7F83868FCF794
:10425000EAF902460B46AFF2BC11BF482338FFF71C
:104260005BF8BD4A0C23233A02210020FEF7D4FC60
:1042700020213046FCF728FE90B980213046FCF71B
:1042800023FE68B901212046FCF71EFE40B9022139
:104290002046FCF719FE18B94846494600F03EFE94
:1042A00020213046FCF710FE98B980213046FCF7FB
:1042B0000BFE70B901212046FCF706FE012808D14B
:1042C00002212046FCF700FE18B94146284600F0BE
:1042D00025FE20213046FCF7F7FD98B980213046B5
:1042E000FCF7F2FD70B901212046FCF7EDFD48B95D
:1042F00002212046FCF7E8FD012803D19849284611
:1043000000F00CFE20213046FCF7DEFD98B980213C
:104310003046FCF7D9FD01280DD101212046FCF7DC
:10432000D3FD40B902212046FCF7CEFD18B929463D
:10433000404600F0F3FD20213046FCF7C5FD012882
:1043400012D180213046FCF7BFFD68B9012120461B
:10435000FCF7BAFD40B902212046FCF7B5FD18B9BB
:1043600029467F4800F0DAFDFEF792F86FF07E51A3
:104370000844B0F10C7FBFF4D9AE7A494FF07E50BB
:1043800000F0CCFD4FF4AF70FCF798FC002108461C
:1043900000F0C4FD55465046FCF790FC4FF07E51AE
:1043A000084600F0BBFD4FF4E160FCF787FC0021FC
:1043B000084600F0B3FD2846FCF780FC4FF07E5124
:1043C000684800F0ABFD4FF41670FCF777FC002155
:1043D000084600F0A3FD2846FCF770FC3868FCF79F
:1043E00022F902460B46AFF264315B48FEF794FFB8
:1043F0005948FBF7B9FE82B2322357495748FDF7B7
:10440000DCFF3868FCF70FF902460B46AFF2743157
:1044100051482338FEF780FF4F4A0C23233A0221EC
:104420000020FEF7F9FB20213046FCF74DFD012866
:1044300011D180213046FCF747FD01280BD1012125
:104440002046FCF741FD012805D102212046FCF75A
:104450003BFD012806D020213046FCF735FD012820
:104460006CD0B7E04046414600F058FD2846FCF7C6
:1044700025FC0021084600F051FD2846FCF71EFCF3
:104480004FF4004A012251465846FCF722FD2846C7
:10449000FCF714FC002251465846FCF71AFD4FF475
:1044A0007A794846FCF70AFC012251465846FCF747
:1044B00010FD2846FCF702FC002251465846FCF746
:1044C00008FD4846FCF7FAFB012251465846FCF726
:1044D00000FD2846FCF7F2FB002251465846FCF747
:1044E000F8FC41F28830FCF7E9FB012251465846BE
:1044F000FCF7EFFC2846FCF7E1FB0022514658464A
:10450000FCF7E7FC4846FCF7D9FB01225146584628
:10451000FCF7DFFC2846FCF7D1FB00225146584649
:10452000FCF7D7FC4846FCF7C9FB01225146584628
:10453000FCF7CFFC2846FCF7C1FB15E037E0000094
:10454000CDCCCC3E9A99993E8FC2F53D3333B33EE4
:104550009A99193E3333333F4B000020F00100207D
:104560009A99193F000080BF002251465846FCF737
:10457000B0FC4FF07C594946084600F0CFFC41F2B0
:10458000CC00FCF79BFB0021084600F0C7FC40F282
:10459000DC50FCF793FB49464FF03F4000F0BEFC77
:1045A00040F21450FCF78AFBB946FB4FFEE0802135
:1045B0003046FCF789FC01280CD101212046FCF78C
:1045C00083FC012806D102212046FCF77DFC00284F
:1045D0003FF448AF20213046FCF776FC88B98021B3
:1045E0003046FCF771FC01280BD101212046FCF775
:1045F0006BFC012805D102212046FCF765FC01284F
:10460000E6D020213046FCF75FFC88B98021304697
:10461000FCF75AFC01280BD101212046FCF754FC81
:10462000012805D102212046FCF74EFC0028CFD0FE
:1046300020213046FCF748FC80B980213046FCF749
:1046400043FC58B901212046FCF73EFC012805D166
:1046500002212046FCF738FC0128B9D02021304641
:10466000FCF732FC012810D180213046FCF72CFCED
:1046700001280AD101212046FCF726FC28B9022195
:104680002046FCF721FC0028A2D020213046FCF770
:104690001BFCA8B980213046FCF716FC80B901212B
:1046A0002046FCF711FC58B902212046FCF70CFC0F
:1046B00030B9BAA0FEF720FE4846494600F02EFC6D
:1046C00020213046FCF700FCB0B980213046FCF7D1
:1046D000FBFB88B901212046FCF7F6FB01280BD132
:1046E00002212046FCF7F0FB30B9AFA0FEF704FE34
:1046F0004146B04800F012FC20213046FCF7E4FBB4
:10470000B0B980213046FCF7DFFB88B90121204693
:10471000FCF7DAFB60B902212046FCF7D5FB012843
:1047200006D1A5A0FEF7E8FDA649A24800F0F6FBD9
:1047300020213046FCF7C8FBB8B980213046FCF791
:10474000C3FB012811D101212046FCF7BDFB60B954
:1047500002212046FCF7B8FB38B99BA0FEF7CCFD40
:1047600094494FF07C5000F0D9FB20213046FCF7F3
:10477000ABFB01287FF432AE80213046FCF7A4FB6E
:104780000028F7D101212046FCF79EFB0028F1D13B
:1047900002212046FCF798FB0028EBD18DA0FEF704
:1047A000ABFD8449874800F0B9FB17E64E46D9F8BF
:1047B0000000FBF738FF02460B46AFF2387188481D
:1047C000FEF7AAFD8648FBF7CFFC82B2322384496C
:1047D0008448FDF7F2FD3068FBF725FF02460B46E3
:1047E000AFF248717E482338FEF796FD7C4A0C23D1
:1047F000233A02210020FEF70FFA7B4E202130469B
:10480000FCF762FB012811D180213046FCF75CFBEC
:1048100001280BD101212046FCF756FB012805D1C8
:1048200002212046FCF750FB012806D0202130460B
:10483000FCF74AFB01287CD0EDE03846394600F011
:104840006DFB2846FCF73AFA0021084600F066FBAB
:104850002846FCF733FA0122D1035846FCF739FB0E
:104860002846FCF72BFA00224FF400415846FCF78B
:1048700030FB4FF47A7A5046FCF720FA0122D1033C
:104880005846FCF726FB2846FCF718FA00224FF49E
:1048900000415846FCF71DFB5046FCF70FFA012279
:1048A000D1035846FCF715FB2846FCF707FA00220F
:1048B0004FF400415846FCF70CFB41F28830FCF7FE
:1048C000FDF90122D1035846FCF703FB2846FCF70B
:1048D000F5F900224FF400415846FCF7FAFA504629
:1048E000FCF7ECF90122D1035846FCF7F2FA28460E
:1048F000FCF7E4F900224FF400415846FCF7E9FACE
:104900005046FCF7DBF90122D1035846FCF7E1FAE7
:104910002846FCF7D3F900224FF400415846FCF733
:10492000D8FA4FF07E51314800F0F8FA4FF4967003
:1049300000E05DE0FCF7C2F90021084600F0EEFA65
:104940004FF41670FCF7BAF94FF07E51084600F0AC
:10495000E5FA41F64C50FCF7B1F90021084600F0A9
:10496000DDFA4FF41670FCF7A9F90021084600F0B3
:10497000D5FA4FF07E511D4800F0D0FA40F2EE20FB
:10498000FCF79CF90021084600F0C8FA4FF41670B5
:10499000FCF794F9B1462EE1CDCC4C3FD3A6B8C379
:1049A000C7B0BDF80D0A0000D3A6B8C3D3D2D7AAAA
:1049B0000D0A0000CDCCCC3DBFECCBD9D3D2D7AAC9
:1049C0000D0A00003333333FD3A6B8C3D7F3D7AAB9
:1049D0000D0A0000BFECCBD9D7F3D7AA0D0A00000F
:1049E0004B000020F001002000080140000080BFC3
:1049F00080213046FCF768FA01280CD101212046BD
:104A0000FCF762FA012806D102212046FCF75CFA85
:104A100000283FF412AF20213046FCF755FA88B940
:104A200080213046FCF750FA01280BD101212046A5
:104A3000FCF74AFA012805D102212046FCF744FA86
:104A40000128E6D020213046FCF73EFA88B98021C3
:104A50003046FCF739FA01280BD101212046FCF73A
:104A600033FA012805D102212046FCF72DFA00284F
:104A7000CFD020213046FCF727FA80B9802130467C
:104A8000FCF722FA58B901212046FCF71DFA01284B
:104A900005D102212046FCF717FA0128B9D02021C0
:104AA0003046FCF711FA012810D180213046FCF77E
:104AB0000BFA01280AD101212046FCF705FA28B992
:104AC00002212046FCF700FA0028A2D0202130461F
:104AD000FCF7FAF9B0B980213046FCF7F5F988B94E
:104AE00001212046FCF7F0F960B902212046FCF7CD
:104AF000EBF938B9AFF25C10FEF7FEFB38463946E9
:104B000000F00CFA20213046FCF7DEF9B8B980211C
:104B10003046FCF7D9F990B901212046FCF7D4F9C9
:104B200001280CD102212046FCF7CEF938B9AFF2AA
:104B30008810FEF7E1FB4146F34800F0EFF9202131
:104B40003046FCF7C1F9B8B980213046FCF7BCF912
:104B500090B901212046FCF7B7F968B90221204637
:104B6000FCF7B2F9012807D1AFF2B410FEF7C4FB8D
:104B7000E649E54800F0D2F920213046FCF7A4F9D7
:104B8000B8B980213046FCF79FF9012811D10121E5
:104B90002046FCF799F960B902212046FCF794F908
:104BA00038B9AFF2DC10FEF7A7FBD749404600F05A
:104BB000B5F920213046FCF787F901287FF4F6ACDF
:104BC00080213046FCF780F90028F7D101212046EA
:104BD000FCF77AF90028F1D102212046FCF774F99C
:104BE0000028EBD1AFF21420FEF786FBC649C74878
:104BF00000F094F9DAE5C64E3068FBF714FD024682
:104C00000B46AFF68031C348FEF786FBC148FBF781
:104C1000ABFA82B23223BF49BF48FDF7CEFB306802
:104C2000FBF701FD02460B46AFF69031B948233839
:104C3000FEF772FBB74A0C23233A02210020FDF74E
:104C4000EBFF20214E464846FCF73EF9012811D1E2
:104C500080213046FCF738F901280BD1012120468C
:104C6000FCF732F9012805D102212046FCF72CF986
:104C7000012806D020213046FCF726F9012841D032
:104C800052E03846394600F049F92846FCF716F854
:104C90000021084600F042F92846FCF70FF80122EF
:104CA000D40321465E465846FCF713F92846FCF724
:104CB00005F8002221463046FCF70BF957465046CE
:104CC000FBF7FCFF012221463046FCF702F928469B
:104CD000FBF7F4FF002221463046FCF7FAF838468D
:104CE000FBF7ECFF012221463046FCF7F2F828469C
:104CF000FBF7E4FF002221463046FCF7EAF80020EB
:104D0000BDE8F88F80213046FCF7DEF801280BD192
:104D100001212046FCF7D8F8012805D102212046C0
:104D2000FCF7D2F80028ACD020213046FCF7CCF8B4
:104D300088B980213046FCF7C7F801280BD1012142
:104D40002046FCF7C1F8012805D102212046FCF7D6
:104D5000BBF8012895D020213046FCF7B5F888B97A
:104D600080213046FCF7B0F801280BD10121204604
:104D7000FCF7AAF8012805D102212046FCF7A4F887
:104D80000028D0D020213046FCF79EF880B9802141
:104D90003046FCF799F858B901212046FCF794F801
:104DA000012805D102212046FCF78EF80128BAD04F
:104DB00020213046FCF788F8012810D180213046A8
:104DC000FCF782F801280AD101212046FCF77CF883
:104DD00028B902212046FCF777F80028A3D020212B
:104DE0003046FCF771F8B0B980213046FCF76CF81A
:104DF00088B901212046FCF767F860B902212046F6
:104E0000FCF762F838B9AFF26C40FEF775FA384635
:104E1000394600F083F820213046FCF755F8B8B940
:104E200080213046FCF750F890B901212046FCF76C
:104E30004BF801280CD102212046FCF745F838B97F
:104E4000AFF29C40FEF758FA41462F4800F066F852
:104E500020213046FCF738F8B8B980213046FCF7FD
:104E600033F890B901212046FCF72EF868B90221E9
:104E70002046FCF729F8012807D1AFF2C440FEF71D
:104E80003BFA2249204800F049F820213046FCF73F
:104E90001BF8B8B980213046FCF716F8012811D16B
:104EA00001212046FCF710F860B902212046FCF7EA
:104EB0000BF838B9AFF2F040FEF71EFA124940463F
:104EC00000F02CF820213046FBF7FEFF01287FF48C
:104ED00062AD80213046FBF7F7FF0028F7D10121B2
:104EE0002046FBF7F1FF0028F1D102212046FBF715
:104EF000EBFF0028EBD1AFF22450FEF7FDF9024999
:104F0000024800F00BF876E6CDCCCC3D9A99193FDB
:104F1000100000204B000020F00100200C4A10B5CA
:104F200010600C4801600C4801680A48FDF7B2FEA9
:104F3000FBF760FB0446094801680548FDF7AAFE37
:104F4000FBF758FB2146BDE81040FDF741BD0000CE
:104F500034030020540300200C000020080000202F
:104F60000000000000000000010203040607080919
:104F70000000000001020304000000000000000027
:104F8000002F000000000700070000147F147F14AA
:104F900000242A7F2A120062640813230036495530
:104FA000225000000503000000001C224100000008
:104FB00041221C000014083E08140008083E08089E
:104FC000000000A0600000080808080800006060F9
:104FD0000000002010080402003E5149453E000038
:104FE000427F4000004261514946002141454B311A
:104FF000001814127F10002745454539003C4A49E6
:105000004930000171090503003649494936000657
:105010004949291E000036360000000056360000BF
:10502000000814224100001414141414000041223A
:10503000140800020151090600324959513E007C12
:105040001211127C007F49494936003E41414122FC
:10505000007F4141221C007F49494941007F0909E5
:105060000901003E4149497A007F0808087F000095
:10507000417F4100002040413F01007F0814224150
:10508000007F40404040007F020C027F007F040808
:10509000107F003E4141413E007F09090906003E64
:1050A0004151215E007F091929460046494949318D
:1050B0000001017F0101003F4040403F001F2040B0
:1050C000201F003F4038403F00631408146300076E
:1050D0000870080700615149454300007F414100C5
:1050E00000552A552A55000041417F000004020165
:1050F0000204004040404040000001020400002043
:1051000054545478007F4844443800384444442080
:1051100000384444487F00385454541800087E092D
:1051200001020018A4A4A47C007F080404780000F5
:10513000447D4000004080847D00007F10284400B2
:105140000000417F4000007C04180478007C0804C3
:10515000047800384444443800FC242424180018FF
:10516000242418FC007C08040408004854545420EB
:1051700000043F444020003C4040207C001C204074
:10518000201C003C4030403C004428102844001CB7
:10519000A0A0A07C004464544C44141414141414AF
:1051A00000000000000000000000000000000000FF
:1051B000000000F800000000000000333000000094
:1051C00000100C06100C060000000000000000009B
:1051D00040C07840C0784000043F04043F0404000D
:1051E000007088FC08300000001820FF211E00001D
:1051F000F008F000E018000000211C031E211E0032
:1052000000F00888700000001E21232419272110B7
:1052100010160E000000000000000000000000005A
:10522000000000E018040200000000071820400001
:1052300000020418E00000000040201807000000F1
:10524000404080F0804040000202010F0102020055
:10525000000000F0000000000101011F0101010039
:10526000000000000000000080B07000000000009E
:105270000000000000000000000101010101010127
:1052800000000000000000000030300000000000BE
:105290000000000080601804006018060100000093
:1052A00000E010080810E000000F102020100F0090
:1052B000001010F8000000000020203F2020000017
:1052C000007008080888700000302824222130006F
:1052D00000300888884830000018202020110E0077
:1052E0000000C02010F8000000070424243F240020
:1052F00000F80888880808000019212020110E00F5
:1053000000E0108888180000000F112020110E0006
:1053100000380808C83808000000003F00000000FE
:105320000070880808887000001C222121221C00BF
:1053300000E010080810E0000000312222110F00E8
:10534000000000C0C000000000000030300000007D
:1053500000000080000000000000806000000000ED
:105360000000804020100800000102040810200006
:105370004040404040404000040404040404040051
:1053800000081020408000000020100804020100E6
:10539000007048080808F0000000003036010000E6
:1053A000C030C828E810E0000718272423140B0099
:1053B0000000C038E0000000203C23020227382013
:1053C00008F8888888700000203F202020110E00F7
:1053D000C0300808080838000718202020100800EE
:1053E00008F808080810E000203F202020100F00D7
:1053F00008F88888E8081000203F202023201800A3
:1054000008F88888E8081000203F2000030000000A
:10541000C03008080838000007182020221E0200AB
:1054200008F808000008F808203F210101213F206A
:10543000000808F8080800000020203F2020000095
:1054400000000808F8080800C08080807F00000085
:1054500008F888C028180800203F200126382000BE
:1054600008F8080000000000203F20202020300025
:1054700008F8F800F8F80800203F003F003F20003F
:1054800008F830C00008F808203F200007183F0047
:10549000E01008080810E0000F10202020100F0076
:1054A00008F808080808F000203F21010101000069
:1054B000E01008080810E0000F18242438504F00AE
:1054C00008F8888888887000203F2000030C30206E
:1054D00000708808080838000038202121221C00AC
:1054E000180808F8080818000000203F20000000F5
:1054F00008F808000008F808001F202020201F00DE
:105500000878880000C83808000007380E0100003D
:10551000F80800F80008F800033C0700073C030007
:10552000081868808068180820302C03032C30206D
:105530000838C800C83808000000203F20000000DC
:1055400010080808C8380800203826212020180034
:10555000000000FE020202000000007F4040400008
:10556000000C30C000000000000000010638C00040
:1055700000020202FE000000004040407F000000E8
:10558000000004020202040000000000000000000D
:10559000000000000000000080808080808080800B
:1055A00000020204000000000000000000000000F3
:1055B00000008080808000000019242222223F20E9
:1055C00008F8008080000000003F112020110E002C
:1055D0000000008080800000000E112020201100BB
:1055E000000000808088F800000E112020103F206D
:1055F0000000808080800000001F222222221300F1
:10560000008080F0888888180020203F202000003B
:105610000000808080808000006B949494936000F0
:1056200008F8008080800000203F210000203F20FB
:1056300000809898000000000020203F20200000FB
:10564000000000809898000000C08080807F0000EB
:1056500008F8000080808000203F24022D302000C8
:10566000000808F8000000000020203F2020000073
:105670008080808080808000203F20003F20003F8D
:105680008080008080800000203F210000203F209B
:105690000000808080800000001F202020201F004C
:1056A000808000808000000080FFA12020110E007B
:1056B0000000008080808000000E112020A0FF806C
:1056C000808080008080800020203F212000010019
:1056D000000080808080800000332424242419006E
:1056E000008080E0808000000000001F202000007B
:1056F0008080000000808000001F202020103F20BC
:10570000808080000080808000010E30080601004B
:1057100080800080008080800F300C030C300F00F0
:1057200000808000808080000020312E0E3120001B
:10573000808080000080808080818E70180601004B
:1057400000808080808080000021302C2221300069
:1057500000000000807C020200000000003F40408A
:1057600000000000FF00000000000000FF0000003B
:105770000002027C800000000040403F000000006A
:105780000006010102020404000000000000000005
:10579000B057000800000020280000006033000817
:1057A000D857000828000020500B00007033000874
:1057B00000000000000000000000000000000000E9
:1057C00000000000010000001000000000000000C8
:0857D0000024F40000000000B9
:04000005080000ED02
:00000001FF
